{
  "_format": "hh-sol-artifact-1",
  "contractName": "DAO",
  "sourceName": "contracts/DAO.sol",
  "abi": [
    {
      "anonymous": false,
      "inputs": [
        {
          "indexed": false,
          "internalType": "uint256",
          "name": "id",
          "type": "uint256"
        },
        {
          "indexed": false,
          "internalType": "address",
          "name": "owner",
          "type": "address"
        }
      ],
      "name": "ProblemCreated",
      "type": "event"
    },
    {
      "anonymous": false,
      "inputs": [
        {
          "indexed": false,
          "internalType": "uint256",
          "name": "solutionId",
          "type": "uint256"
        },
        {
          "indexed": false,
          "internalType": "address",
          "name": "contributor",
          "type": "address"
        }
      ],
      "name": "SolutionAccepted",
      "type": "event"
    },
    {
      "anonymous": false,
      "inputs": [
        {
          "indexed": false,
          "internalType": "uint256",
          "name": "id",
          "type": "uint256"
        },
        {
          "indexed": false,
          "internalType": "uint256",
          "name": "problemId",
          "type": "uint256"
        },
        {
          "indexed": false,
          "internalType": "address",
          "name": "contributor",
          "type": "address"
        }
      ],
      "name": "SolutionSubmitted",
      "type": "event"
    },
    {
      "anonymous": false,
      "inputs": [
        {
          "indexed": false,
          "internalType": "uint256",
          "name": "solutionId",
          "type": "uint256"
        },
        {
          "indexed": false,
          "internalType": "address",
          "name": "voter",
          "type": "address"
        }
      ],
      "name": "Voted",
      "type": "event"
    },
    {
      "inputs": [
        {
          "internalType": "string",
          "name": "description",
          "type": "string"
        }
      ],
      "name": "createProblem",
      "outputs": [],
      "stateMutability": "payable",
      "type": "function"
    },
    {
      "inputs": [
        {
          "internalType": "uint256",
          "name": "problemId",
          "type": "uint256"
        },
        {
          "internalType": "uint256",
          "name": "index",
          "type": "uint256"
        }
      ],
      "name": "getSolution",
      "outputs": [
        {
          "internalType": "uint256",
          "name": "id",
          "type": "uint256"
        },
        {
          "internalType": "address",
          "name": "contributor",
          "type": "address"
        },
        {
          "internalType": "string",
          "name": "content",
          "type": "string"
        },
        {
          "internalType": "uint256",
          "name": "voteCount",
          "type": "uint256"
        },
        {
          "internalType": "bool",
          "name": "accepted",
          "type": "bool"
        }
      ],
      "stateMutability": "view",
      "type": "function"
    },
    {
      "inputs": [
        {
          "internalType": "uint256",
          "name": "problemId",
          "type": "uint256"
        }
      ],
      "name": "getSolutionsCount",
      "outputs": [
        {
          "internalType": "uint256",
          "name": "",
          "type": "uint256"
        }
      ],
      "stateMutability": "view",
      "type": "function"
    },
    {
      "inputs": [],
      "name": "problemCounter",
      "outputs": [
        {
          "internalType": "uint256",
          "name": "",
          "type": "uint256"
        }
      ],
      "stateMutability": "view",
      "type": "function"
    },
    {
      "inputs": [
        {
          "internalType": "uint256",
          "name": "",
          "type": "uint256"
        },
        {
          "internalType": "uint256",
          "name": "",
          "type": "uint256"
        }
      ],
      "name": "problemSolutions",
      "outputs": [
        {
          "internalType": "uint256",
          "name": "id",
          "type": "uint256"
        },
        {
          "internalType": "uint256",
          "name": "problemId",
          "type": "uint256"
        },
        {
          "internalType": "address",
          "name": "contributor",
          "type": "address"
        },
        {
          "internalType": "string",
          "name": "content",
          "type": "string"
        },
        {
          "internalType": "uint256",
          "name": "voteCount",
          "type": "uint256"
        },
        {
          "internalType": "bool",
          "name": "accepted",
          "type": "bool"
        }
      ],
      "stateMutability": "view",
      "type": "function"
    },
    {
      "inputs": [
        {
          "internalType": "uint256",
          "name": "",
          "type": "uint256"
        }
      ],
      "name": "problems",
      "outputs": [
        {
          "internalType": "uint256",
          "name": "id",
          "type": "uint256"
        },
        {
          "internalType": "address",
          "name": "owner",
          "type": "address"
        },
        {
          "internalType": "string",
          "name": "description",
          "type": "string"
        },
        {
          "internalType": "uint256",
          "name": "reward",
          "type": "uint256"
        },
        {
          "internalType": "bool",
          "name": "isResolved",
          "type": "bool"
        }
      ],
      "stateMutability": "view",
      "type": "function"
    },
    {
      "inputs": [],
      "name": "quorum",
      "outputs": [
        {
          "internalType": "uint256",
          "name": "",
          "type": "uint256"
        }
      ],
      "stateMutability": "view",
      "type": "function"
    },
    {
      "inputs": [],
      "name": "solutionCounter",
      "outputs": [
        {
          "internalType": "uint256",
          "name": "",
          "type": "uint256"
        }
      ],
      "stateMutability": "view",
      "type": "function"
    },
    {
      "inputs": [
        {
          "internalType": "uint256",
          "name": "problemId",
          "type": "uint256"
        },
        {
          "internalType": "string",
          "name": "content",
          "type": "string"
        }
      ],
      "name": "submitSolution",
      "outputs": [],
      "stateMutability": "nonpayable",
      "type": "function"
    },
    {
      "inputs": [
        {
          "internalType": "uint256",
          "name": "problemId",
          "type": "uint256"
        },
        {
          "internalType": "uint256",
          "name": "solutionIndex",
          "type": "uint256"
        }
      ],
      "name": "voteSolution",
      "outputs": [],
      "stateMutability": "nonpayable",
      "type": "function"
    }
  ],
  "bytecode": "0x608060405260028055348015601357600080fd5b50611935806100236000396000f3fe6080604052600436106100915760003560e01c8063a2c3743d11610059578063a2c3743d146101ac578063d3b5c016146101d7578063df02173114610200578063eba4f3661461021c578063fe12bc1a1461025d57610091565b80631503a3eb146100965780631703a018146100d35780639368691f146100fe5780639aacb18c146101295780639ca3da381461016a575b600080fd5b3480156100a257600080fd5b506100bd60048036038101906100b89190610dc6565b610286565b6040516100ca9190610e02565b60405180910390f35b3480156100df57600080fd5b506100e86102a6565b6040516100f59190610e02565b60405180910390f35b34801561010a57600080fd5b506101136102ac565b6040516101209190610e02565b60405180910390f35b34801561013557600080fd5b50610150600480360381019061014b9190610e1d565b6102b2565b604051610161959493929190610f49565b60405180910390f35b34801561017657600080fd5b50610191600480360381019061018c9190610e1d565b6103d7565b6040516101a396959493929190610fa3565b60405180910390f35b3480156101b857600080fd5b506101c16104e5565b6040516101ce9190610e02565b60405180910390f35b3480156101e357600080fd5b506101fe60048036038101906101f99190611140565b6104eb565b005b61021a6004803603810190610215919061119c565b6106bf565b005b34801561022857600080fd5b50610243600480360381019061023e9190610dc6565b610841565b604051610254959493929190610f49565b60405180910390f35b34801561026957600080fd5b50610284600480360381019061027f9190610e1d565b61092c565b005b600060046000838152602001908152602001600020805490509050919050565b60025481565b60005481565b600080606060008060006004600089815260200190815260200160002087815481106102e1576102e06111e5565b5b9060005260206000209060070201905080600001548160020160009054906101000a900473ffffffffffffffffffffffffffffffffffffffff168260030183600401548460050160009054906101000a900460ff1682805461034290611243565b80601f016020809104026020016040519081016040528092919081815260200182805461036e90611243565b80156103bb5780601f10610390576101008083540402835291602001916103bb565b820191906000526020600020905b81548152906001019060200180831161039e57829003601f168201915b5050505050925095509550955095509550509295509295909350565b600460205281600052604060002081815481106103f357600080fd5b9060005260206000209060070201600091509150508060000154908060010154908060020160009054906101000a900473ffffffffffffffffffffffffffffffffffffffff169080600301805461044990611243565b80601f016020809104026020016040519081016040528092919081815260200182805461047590611243565b80156104c25780601f10610497576101008083540402835291602001916104c2565b820191906000526020600020905b8154815290600101906020018083116104a557829003601f168201915b5050505050908060040154908060050160009054906101000a900460ff16905086565b60015481565b6003600083815260200190815260200160002060040160009054906101000a900460ff161561054f576040517f08c379a0000000000000000000000000000000000000000000000000000000008152600401610546906112c0565b60405180910390fd5b6004600083815260200190815260200160002060018160018154018082558091505003906000526020600020905050600060046000848152602001908152602001600020600160046000868152602001908152602001600020805490506105b6919061130f565b815481106105c7576105c66111e5565b5b90600052602060002090600702019050600160008154809291906105ea90611343565b919050558160000181905550828160010181905550338160020160006101000a81548173ffffffffffffffffffffffffffffffffffffffff021916908373ffffffffffffffffffffffffffffffffffffffff160217905550818160030190816106539190611537565b506000816004018190555060008160050160006101000a81548160ff0219169083151502179055507fb90ce338b8573e81c34ada6d957ebd0e04df044ff9d4deb7a5decca62857261b816000015484336040516106b293929190611609565b60405180910390a1505050565b60003411610702576040517f08c379a00000000000000000000000000000000000000000000000000000000081526004016106f99061168c565b60405180910390fd5b60008081548092919061071490611343565b91905055506040518060a0016040528060005481526020013373ffffffffffffffffffffffffffffffffffffffff1681526020018281526020013481526020016000151581525060036000805481526020019081526020016000206000820151816000015560208201518160010160006101000a81548173ffffffffffffffffffffffffffffffffffffffff021916908373ffffffffffffffffffffffffffffffffffffffff16021790555060408201518160020190816107d59190611537565b506060820151816003015560808201518160040160006101000a81548160ff0219169083151502179055509050507fcd96f9435bfcb0af0e256ab0870362a51e74b6aa3315fa1448997bba5bb8b289600054336040516108369291906116ac565b60405180910390a150565b60036020528060005260406000206000915090508060000154908060010160009054906101000a900473ffffffffffffffffffffffffffffffffffffffff169080600201805461089090611243565b80601f01602080910402602001604051908101604052809291908181526020018280546108bc90611243565b80156109095780601f106108de57610100808354040283529160200191610909565b820191906000526020600020905b8154815290600101906020018083116108ec57829003601f168201915b5050505050908060030154908060040160009054906101000a900460ff16905085565b6000600460008481526020019081526020016000208281548110610953576109526111e5565b5b906000526020600020906007020190508060060160003373ffffffffffffffffffffffffffffffffffffffff1673ffffffffffffffffffffffffffffffffffffffff16815260200190815260200160002060009054906101000a900460ff16156109f2576040517f08c379a00000000000000000000000000000000000000000000000000000000081526004016109e990611721565b60405180910390fd5b8060050160009054906101000a900460ff1615610a44576040517f08c379a0000000000000000000000000000000000000000000000000000000008152600401610a3b9061178d565b60405180910390fd5b60018160060160003373ffffffffffffffffffffffffffffffffffffffff1673ffffffffffffffffffffffffffffffffffffffff16815260200190815260200160002060006101000a81548160ff0219169083151502179055506001816004016000828254610ab391906117ad565b925050819055507f030b0f8dcd86a031eddb071f91882edeac8173663ba775713b677b42b51be44b816000015433604051610aef9291906116ac565b60405180910390a1600254816004015410610b0f57610b0e8383610b14565b5b505050565b6000600460008481526020019081526020016000208281548110610b3b57610b3a6111e5565b5b9060005260206000209060070201905060006003600085815260200190815260200160002090508060040160009054906101000a900460ff1615610bb4576040517f08c379a0000000000000000000000000000000000000000000000000000000008152600401610bab906112c0565b60405180910390fd5b8160050160009054906101000a900460ff1615610c06576040517f08c379a0000000000000000000000000000000000000000000000000000000008152600401610bfd9061182d565b60405180910390fd5b60018260050160006101000a81548160ff02191690831515021790555060018160040160006101000a81548160ff02191690831515021790555060008260020160009054906101000a900473ffffffffffffffffffffffffffffffffffffffff1673ffffffffffffffffffffffffffffffffffffffff168260030154604051610c8e9061187e565b60006040518083038185875af1925050503d8060008114610ccb576040519150601f19603f3d011682016040523d82523d6000602084013e610cd0565b606091505b5050905080610d14576040517f08c379a0000000000000000000000000000000000000000000000000000000008152600401610d0b906118df565b60405180910390fd5b7fe1705b37eb830dc4576bdebab93caa837aa5854ea7970c6a3757eb2240a6f5bf83600001548460020160009054906101000a900473ffffffffffffffffffffffffffffffffffffffff16604051610d6d9291906116ac565b60405180910390a15050505050565b6000604051905090565b600080fd5b600080fd5b6000819050919050565b610da381610d90565b8114610dae57600080fd5b50565b600081359050610dc081610d9a565b92915050565b600060208284031215610ddc57610ddb610d86565b5b6000610dea84828501610db1565b91505092915050565b610dfc81610d90565b82525050565b6000602082019050610e176000830184610df3565b92915050565b60008060408385031215610e3457610e33610d86565b5b6000610e4285828601610db1565b9250506020610e5385828601610db1565b9150509250929050565b600073ffffffffffffffffffffffffffffffffffffffff82169050919050565b6000610e8882610e5d565b9050919050565b610e9881610e7d565b82525050565b600081519050919050565b600082825260208201905092915050565b60005b83811015610ed8578082015181840152602081019050610ebd565b60008484015250505050565b6000601f19601f8301169050919050565b6000610f0082610e9e565b610f0a8185610ea9565b9350610f1a818560208601610eba565b610f2381610ee4565b840191505092915050565b60008115159050919050565b610f4381610f2e565b82525050565b600060a082019050610f5e6000830188610df3565b610f6b6020830187610e8f565b8181036040830152610f7d8186610ef5565b9050610f8c6060830185610df3565b610f996080830184610f3a565b9695505050505050565b600060c082019050610fb86000830189610df3565b610fc56020830188610df3565b610fd26040830187610e8f565b8181036060830152610fe48186610ef5565b9050610ff36080830185610df3565b61100060a0830184610f3a565b979650505050505050565b600080fd5b600080fd5b7f4e487b7100000000000000000000000000000000000000000000000000000000600052604160045260246000fd5b61104d82610ee4565b810181811067ffffffffffffffff8211171561106c5761106b611015565b5b80604052505050565b600061107f610d7c565b905061108b8282611044565b919050565b600067ffffffffffffffff8211156110ab576110aa611015565b5b6110b482610ee4565b9050602081019050919050565b82818337600083830152505050565b60006110e36110de84611090565b611075565b9050828152602081018484840111156110ff576110fe611010565b5b61110a8482856110c1565b509392505050565b600082601f8301126111275761112661100b565b5b81356111378482602086016110d0565b91505092915050565b6000806040838503121561115757611156610d86565b5b600061116585828601610db1565b925050602083013567ffffffffffffffff81111561118657611185610d8b565b5b61119285828601611112565b9150509250929050565b6000602082840312156111b2576111b1610d86565b5b600082013567ffffffffffffffff8111156111d0576111cf610d8b565b5b6111dc84828501611112565b91505092915050565b7f4e487b7100000000000000000000000000000000000000000000000000000000600052603260045260246000fd5b7f4e487b7100000000000000000000000000000000000000000000000000000000600052602260045260246000fd5b6000600282049050600182168061125b57607f821691505b60208210810361126e5761126d611214565b5b50919050565b7f50726f626c656d20616c7265616479207265736f6c7665640000000000000000600082015250565b60006112aa601883610ea9565b91506112b582611274565b602082019050919050565b600060208201905081810360008301526112d98161129d565b9050919050565b7f4e487b7100000000000000000000000000000000000000000000000000000000600052601160045260246000fd5b600061131a82610d90565b915061132583610d90565b925082820390508181111561133d5761133c6112e0565b5b92915050565b600061134e82610d90565b91507fffffffffffffffffffffffffffffffffffffffffffffffffffffffffffffffff82036113805761137f6112e0565b5b600182019050919050565b60008190508160005260206000209050919050565b60006020601f8301049050919050565b600082821b905092915050565b6000600883026113ed7fffffffffffffffffffffffffffffffffffffffffffffffffffffffffffffffff826113b0565b6113f786836113b0565b95508019841693508086168417925050509392505050565b6000819050919050565b600061143461142f61142a84610d90565b61140f565b610d90565b9050919050565b6000819050919050565b61144e83611419565b61146261145a8261143b565b8484546113bd565b825550505050565b600090565b61147761146a565b611482818484611445565b505050565b5b818110156114a65761149b60008261146f565b600181019050611488565b5050565b601f8211156114eb576114bc8161138b565b6114c5846113a0565b810160208510156114d4578190505b6114e86114e0856113a0565b830182611487565b50505b505050565b600082821c905092915050565b600061150e600019846008026114f0565b1980831691505092915050565b600061152783836114fd565b9150826002028217905092915050565b61154082610e9e565b67ffffffffffffffff81111561155957611558611015565b5b6115638254611243565b61156e8282856114aa565b600060209050601f8311600181146115a1576000841561158f578287015190505b611599858261151b565b865550611601565b601f1984166115af8661138b565b60005b828110156115d7578489015182556001820191506020850194506020810190506115b2565b868310156115f457848901516115f0601f8916826114fd565b8355505b6001600288020188555050505b505050505050565b600060608201905061161e6000830186610df3565b61162b6020830185610df3565b6116386040830184610e8f565b949350505050565b7f5265776172642072657175697265640000000000000000000000000000000000600082015250565b6000611676600f83610ea9565b915061168182611640565b602082019050919050565b600060208201905081810360008301526116a581611669565b9050919050565b60006040820190506116c16000830185610df3565b6116ce6020830184610e8f565b9392505050565b7f416c726561647920766f74656400000000000000000000000000000000000000600082015250565b600061170b600d83610ea9565b9150611716826116d5565b602082019050919050565b6000602082019050818103600083015261173a816116fe565b9050919050565b7f416c726561647920616363657074656400000000000000000000000000000000600082015250565b6000611777601083610ea9565b915061178282611741565b602082019050919050565b600060208201905081810360008301526117a68161176a565b9050919050565b60006117b882610d90565b91506117c383610d90565b92508282019050808211156117db576117da6112e0565b5b92915050565b7f536f6c7574696f6e20616c726561647920616363657074656400000000000000600082015250565b6000611817601983610ea9565b9150611822826117e1565b602082019050919050565b600060208201905081810360008301526118468161180a565b9050919050565b600081905092915050565b50565b600061186860008361184d565b915061187382611858565b600082019050919050565b60006118898261185b565b9150819050919050565b7f526577617264207472616e73666572206661696c656400000000000000000000600082015250565b60006118c9601683610ea9565b91506118d482611893565b602082019050919050565b600060208201905081810360008301526118f8816118bc565b905091905056fea264697066735822122044bcc4ae695bb97a41fd8f64d7292ff127493dd1f20c388fb1782215b856bef464736f6c634300081c0033",
  "linkReferences": {},
  "deployedLinkReferences": {}
}