{
  "_format": "hh-sol-artifact-1",
  "contractName": "DAO",
  "sourceName": "contracts/DAO.sol",
  "abi": [
    {
      "anonymous": false,
      "inputs": [
        {
          "indexed": false,
          "internalType": "uint256",
          "name": "id",
          "type": "uint256"
        },
        {
          "indexed": false,
          "internalType": "address",
          "name": "owner",
          "type": "address"
        }
      ],
      "name": "ProblemCreated",
      "type": "event"
    },
    {
      "anonymous": false,
      "inputs": [
        {
          "indexed": false,
          "internalType": "uint256",
          "name": "solutionId",
          "type": "uint256"
        },
        {
          "indexed": false,
          "internalType": "address",
          "name": "contributor",
          "type": "address"
        }
      ],
      "name": "SolutionAccepted",
      "type": "event"
    },
    {
      "anonymous": false,
      "inputs": [
        {
          "indexed": false,
          "internalType": "uint256",
          "name": "id",
          "type": "uint256"
        },
        {
          "indexed": false,
          "internalType": "uint256",
          "name": "problemId",
          "type": "uint256"
        },
        {
          "indexed": false,
          "internalType": "address",
          "name": "contributor",
          "type": "address"
        }
      ],
      "name": "SolutionSubmitted",
      "type": "event"
    },
    {
      "anonymous": false,
      "inputs": [
        {
          "indexed": false,
          "internalType": "uint256",
          "name": "solutionId",
          "type": "uint256"
        },
        {
          "indexed": false,
          "internalType": "address",
          "name": "voter",
          "type": "address"
        }
      ],
      "name": "Voted",
      "type": "event"
    },
    {
      "inputs": [
        {
          "internalType": "string",
          "name": "description",
          "type": "string"
        }
      ],
      "name": "createProblem",
      "outputs": [],
      "stateMutability": "payable",
      "type": "function"
    },
    {
      "inputs": [
        {
          "internalType": "uint256",
          "name": "problemId",
          "type": "uint256"
        }
      ],
      "name": "deleteProblem",
      "outputs": [],
      "stateMutability": "nonpayable",
      "type": "function"
    },
    {
      "inputs": [
        {
          "internalType": "uint256",
          "name": "problemId",
          "type": "uint256"
        },
        {
          "internalType": "uint256",
          "name": "index",
          "type": "uint256"
        }
      ],
      "name": "getSolution",
      "outputs": [
        {
          "internalType": "uint256",
          "name": "id",
          "type": "uint256"
        },
        {
          "internalType": "address",
          "name": "contributor",
          "type": "address"
        },
        {
          "internalType": "string",
          "name": "content",
          "type": "string"
        },
        {
          "internalType": "uint256",
          "name": "voteCount",
          "type": "uint256"
        },
        {
          "internalType": "bool",
          "name": "accepted",
          "type": "bool"
        }
      ],
      "stateMutability": "view",
      "type": "function"
    },
    {
      "inputs": [
        {
          "internalType": "uint256",
          "name": "problemId",
          "type": "uint256"
        }
      ],
      "name": "getSolutionsCount",
      "outputs": [
        {
          "internalType": "uint256",
          "name": "",
          "type": "uint256"
        }
      ],
      "stateMutability": "view",
      "type": "function"
    },
    {
      "inputs": [],
      "name": "problemCounter",
      "outputs": [
        {
          "internalType": "uint256",
          "name": "",
          "type": "uint256"
        }
      ],
      "stateMutability": "view",
      "type": "function"
    },
    {
      "inputs": [
        {
          "internalType": "uint256",
          "name": "",
          "type": "uint256"
        },
        {
          "internalType": "uint256",
          "name": "",
          "type": "uint256"
        }
      ],
      "name": "problemSolutions",
      "outputs": [
        {
          "internalType": "uint256",
          "name": "id",
          "type": "uint256"
        },
        {
          "internalType": "uint256",
          "name": "problemId",
          "type": "uint256"
        },
        {
          "internalType": "address",
          "name": "contributor",
          "type": "address"
        },
        {
          "internalType": "string",
          "name": "content",
          "type": "string"
        },
        {
          "internalType": "uint256",
          "name": "voteCount",
          "type": "uint256"
        },
        {
          "internalType": "bool",
          "name": "accepted",
          "type": "bool"
        }
      ],
      "stateMutability": "view",
      "type": "function"
    },
    {
      "inputs": [
        {
          "internalType": "uint256",
          "name": "",
          "type": "uint256"
        }
      ],
      "name": "problems",
      "outputs": [
        {
          "internalType": "uint256",
          "name": "id",
          "type": "uint256"
        },
        {
          "internalType": "address",
          "name": "owner",
          "type": "address"
        },
        {
          "internalType": "string",
          "name": "description",
          "type": "string"
        },
        {
          "internalType": "uint256",
          "name": "reward",
          "type": "uint256"
        },
        {
          "internalType": "bool",
          "name": "isResolved",
          "type": "bool"
        }
      ],
      "stateMutability": "view",
      "type": "function"
    },
    {
      "inputs": [],
      "name": "quorum",
      "outputs": [
        {
          "internalType": "uint256",
          "name": "",
          "type": "uint256"
        }
      ],
      "stateMutability": "view",
      "type": "function"
    },
    {
      "inputs": [],
      "name": "solutionCounter",
      "outputs": [
        {
          "internalType": "uint256",
          "name": "",
          "type": "uint256"
        }
      ],
      "stateMutability": "view",
      "type": "function"
    },
    {
      "inputs": [
        {
          "internalType": "uint256",
          "name": "problemId",
          "type": "uint256"
        },
        {
          "internalType": "string",
          "name": "content",
          "type": "string"
        }
      ],
      "name": "submitSolution",
      "outputs": [],
      "stateMutability": "nonpayable",
      "type": "function"
    },
    {
      "inputs": [
        {
          "internalType": "uint256",
          "name": "problemId",
          "type": "uint256"
        },
        {
          "internalType": "string",
          "name": "newDescription",
          "type": "string"
        }
      ],
      "name": "updateProblem",
      "outputs": [],
      "stateMutability": "payable",
      "type": "function"
    },
    {
      "inputs": [
        {
          "internalType": "uint256",
          "name": "problemId",
          "type": "uint256"
        },
        {
          "internalType": "uint256",
          "name": "solutionIndex",
          "type": "uint256"
        }
      ],
      "name": "voteSolution",
      "outputs": [],
      "stateMutability": "nonpayable",
      "type": "function"
    }
  ],
  "bytecode": "0x608060405260028055348015601357600080fd5b50611db9806100236000396000f3fe6080604052600436106100a75760003560e01c80639ca3da38116100645780639ca3da38146101c5578063a2c3743d14610207578063d3b5c01614610232578063df0217311461025b578063eba4f36614610277578063fe12bc1a146102b8576100a7565b80631503a3eb146100ac5780631703a018146100e9578063310251ef1461011457806384d175a4146101305780639368691f146101595780639aacb18c14610184575b600080fd5b3480156100b857600080fd5b506100d360048036038101906100ce9190611172565b6102e1565b6040516100e091906111ae565b60405180910390f35b3480156100f557600080fd5b506100fe610301565b60405161010b91906111ae565b60405180910390f35b61012e6004803603810190610129919061130f565b610307565b005b34801561013c57600080fd5b5061015760048036038101906101529190611172565b6104e3565b005b34801561016557600080fd5b5061016e6105fb565b60405161017b91906111ae565b60405180910390f35b34801561019057600080fd5b506101ab60048036038101906101a6919061136b565b610601565b6040516101bc959493929190611486565b60405180910390f35b3480156101d157600080fd5b506101ec60048036038101906101e7919061136b565b610726565b6040516101fe969594939291906114e0565b60405180910390f35b34801561021357600080fd5b5061021c610834565b60405161022991906111ae565b60405180910390f35b34801561023e57600080fd5b506102596004803603810190610254919061130f565b61083a565b005b61027560048036038101906102709190611548565b610a0e565b005b34801561028357600080fd5b5061029e60048036038101906102999190611172565b610b90565b6040516102af959493929190611486565b60405180910390f35b3480156102c457600080fd5b506102df60048036038101906102da919061136b565b610c7b565b005b600060046000838152602001908152602001600020805490509050919050565b60025481565b60006003600084815260200190815260200160002090503373ffffffffffffffffffffffffffffffffffffffff168160010160009054906101000a900473ffffffffffffffffffffffffffffffffffffffff1673ffffffffffffffffffffffffffffffffffffffff16146103b0576040517f08c379a00000000000000000000000000000000000000000000000000000000081526004016103a7906115dd565b60405180910390fd5b8060040160009054906101000a900460ff1615610402576040517f08c379a00000000000000000000000000000000000000000000000000000000081526004016103f990611649565b60405180910390fd5b60008160030154905060008111156104c25760003373ffffffffffffffffffffffffffffffffffffffff168260405161043a9061169a565b60006040518083038185875af1925050503d8060008114610477576040519150601f19603f3d011682016040523d82523d6000602084013e61047c565b606091505b50509050806104c0576040517f08c379a00000000000000000000000000000000000000000000000000000000081526004016104b7906116fb565b60405180910390fd5b505b828260020190816104d39190611927565b5034826003018190555050505050565b3373ffffffffffffffffffffffffffffffffffffffff166003600083815260200190815260200160002060010160009054906101000a900473ffffffffffffffffffffffffffffffffffffffff1673ffffffffffffffffffffffffffffffffffffffff1614610587576040517f08c379a000000000000000000000000000000000000000000000000000000000815260040161057e906115dd565b60405180910390fd5b600360008281526020019081526020016000206000808201600090556001820160006101000a81549073ffffffffffffffffffffffffffffffffffffffff02191690556002820160006105da91906110cb565b60038201600090556004820160006101000a81549060ff0219169055505050565b60005481565b600080606060008060006004600089815260200190815260200160002087815481106106305761062f6119f9565b5b9060005260206000209060070201905080600001548160020160009054906101000a900473ffffffffffffffffffffffffffffffffffffffff168260030183600401548460050160009054906101000a900460ff168280546106919061174a565b80601f01602080910402602001604051908101604052809291908181526020018280546106bd9061174a565b801561070a5780601f106106df5761010080835404028352916020019161070a565b820191906000526020600020905b8154815290600101906020018083116106ed57829003601f168201915b5050505050925095509550955095509550509295509295909350565b6004602052816000526040600020818154811061074257600080fd5b9060005260206000209060070201600091509150508060000154908060010154908060020160009054906101000a900473ffffffffffffffffffffffffffffffffffffffff16908060030180546107989061174a565b80601f01602080910402602001604051908101604052809291908181526020018280546107c49061174a565b80156108115780601f106107e657610100808354040283529160200191610811565b820191906000526020600020905b8154815290600101906020018083116107f457829003601f168201915b5050505050908060040154908060050160009054906101000a900460ff16905086565b60015481565b6003600083815260200190815260200160002060040160009054906101000a900460ff161561089e576040517f08c379a000000000000000000000000000000000000000000000000000000000815260040161089590611649565b60405180910390fd5b6004600083815260200190815260200160002060018160018154018082558091505003906000526020600020905050600060046000848152602001908152602001600020600160046000868152602001908152602001600020805490506109059190611a57565b81548110610916576109156119f9565b5b906000526020600020906007020190506001600081548092919061093990611a8b565b919050558160000181905550828160010181905550338160020160006101000a81548173ffffffffffffffffffffffffffffffffffffffff021916908373ffffffffffffffffffffffffffffffffffffffff160217905550818160030190816109a29190611927565b506000816004018190555060008160050160006101000a81548160ff0219169083151502179055507fb90ce338b8573e81c34ada6d957ebd0e04df044ff9d4deb7a5decca62857261b81600001548433604051610a0193929190611ad3565b60405180910390a1505050565b60003411610a51576040517f08c379a0000000000000000000000000000000000000000000000000000000008152600401610a4890611b56565b60405180910390fd5b600080815480929190610a6390611a8b565b91905055506040518060a0016040528060005481526020013373ffffffffffffffffffffffffffffffffffffffff1681526020018281526020013481526020016000151581525060036000805481526020019081526020016000206000820151816000015560208201518160010160006101000a81548173ffffffffffffffffffffffffffffffffffffffff021916908373ffffffffffffffffffffffffffffffffffffffff1602179055506040820151816002019081610b249190611927565b506060820151816003015560808201518160040160006101000a81548160ff0219169083151502179055509050507fcd96f9435bfcb0af0e256ab0870362a51e74b6aa3315fa1448997bba5bb8b28960005433604051610b85929190611b76565b60405180910390a150565b60036020528060005260406000206000915090508060000154908060010160009054906101000a900473ffffffffffffffffffffffffffffffffffffffff1690806002018054610bdf9061174a565b80601f0160208091040260200160405190810160405280929190818152602001828054610c0b9061174a565b8015610c585780601f10610c2d57610100808354040283529160200191610c58565b820191906000526020600020905b815481529060010190602001808311610c3b57829003601f168201915b5050505050908060030154908060040160009054906101000a900460ff16905085565b6000600460008481526020019081526020016000208281548110610ca257610ca16119f9565b5b906000526020600020906007020190508060060160003373ffffffffffffffffffffffffffffffffffffffff1673ffffffffffffffffffffffffffffffffffffffff16815260200190815260200160002060009054906101000a900460ff1615610d41576040517f08c379a0000000000000000000000000000000000000000000000000000000008152600401610d3890611beb565b60405180910390fd5b8060050160009054906101000a900460ff1615610d93576040517f08c379a0000000000000000000000000000000000000000000000000000000008152600401610d8a90611c57565b60405180910390fd5b60018160060160003373ffffffffffffffffffffffffffffffffffffffff1673ffffffffffffffffffffffffffffffffffffffff16815260200190815260200160002060006101000a81548160ff0219169083151502179055506001816004016000828254610e029190611c77565b925050819055507f030b0f8dcd86a031eddb071f91882edeac8173663ba775713b677b42b51be44b816000015433604051610e3e929190611b76565b60405180910390a1600254816004015410610e5e57610e5d8383610e63565b5b505050565b6000600460008481526020019081526020016000208281548110610e8a57610e896119f9565b5b9060005260206000209060070201905060006003600085815260200190815260200160002090508060040160009054906101000a900460ff1615610f03576040517f08c379a0000000000000000000000000000000000000000000000000000000008152600401610efa90611649565b60405180910390fd5b8160050160009054906101000a900460ff1615610f55576040517f08c379a0000000000000000000000000000000000000000000000000000000008152600401610f4c90611cf7565b60405180910390fd5b60018260050160006101000a81548160ff02191690831515021790555060018160040160006101000a81548160ff02191690831515021790555060008260020160009054906101000a900473ffffffffffffffffffffffffffffffffffffffff1673ffffffffffffffffffffffffffffffffffffffff168260030154604051610fdd9061169a565b60006040518083038185875af1925050503d806000811461101a576040519150601f19603f3d011682016040523d82523d6000602084013e61101f565b606091505b5050905080611063576040517f08c379a000000000000000000000000000000000000000000000000000000000815260040161105a90611d63565b60405180910390fd5b7fe1705b37eb830dc4576bdebab93caa837aa5854ea7970c6a3757eb2240a6f5bf83600001548460020160009054906101000a900473ffffffffffffffffffffffffffffffffffffffff166040516110bc929190611b76565b60405180910390a15050505050565b5080546110d79061174a565b6000825580601f106110e95750611108565b601f016020900490600052602060002090810190611107919061110b565b5b50565b5b8082111561112457600081600090555060010161110c565b5090565b6000604051905090565b600080fd5b600080fd5b6000819050919050565b61114f8161113c565b811461115a57600080fd5b50565b60008135905061116c81611146565b92915050565b60006020828403121561118857611187611132565b5b60006111968482850161115d565b91505092915050565b6111a88161113c565b82525050565b60006020820190506111c3600083018461119f565b92915050565b600080fd5b600080fd5b6000601f19601f8301169050919050565b7f4e487b7100000000000000000000000000000000000000000000000000000000600052604160045260246000fd5b61121c826111d3565b810181811067ffffffffffffffff8211171561123b5761123a6111e4565b5b80604052505050565b600061124e611128565b905061125a8282611213565b919050565b600067ffffffffffffffff82111561127a576112796111e4565b5b611283826111d3565b9050602081019050919050565b82818337600083830152505050565b60006112b26112ad8461125f565b611244565b9050828152602081018484840111156112ce576112cd6111ce565b5b6112d9848285611290565b509392505050565b600082601f8301126112f6576112f56111c9565b5b813561130684826020860161129f565b91505092915050565b6000806040838503121561132657611325611132565b5b60006113348582860161115d565b925050602083013567ffffffffffffffff81111561135557611354611137565b5b611361858286016112e1565b9150509250929050565b6000806040838503121561138257611381611132565b5b60006113908582860161115d565b92505060206113a18582860161115d565b9150509250929050565b600073ffffffffffffffffffffffffffffffffffffffff82169050919050565b60006113d6826113ab565b9050919050565b6113e6816113cb565b82525050565b600081519050919050565b600082825260208201905092915050565b60005b8381101561142657808201518184015260208101905061140b565b60008484015250505050565b600061143d826113ec565b61144781856113f7565b9350611457818560208601611408565b611460816111d3565b840191505092915050565b60008115159050919050565b6114808161146b565b82525050565b600060a08201905061149b600083018861119f565b6114a860208301876113dd565b81810360408301526114ba8186611432565b90506114c9606083018561119f565b6114d66080830184611477565b9695505050505050565b600060c0820190506114f5600083018961119f565b611502602083018861119f565b61150f60408301876113dd565b81810360608301526115218186611432565b9050611530608083018561119f565b61153d60a0830184611477565b979650505050505050565b60006020828403121561155e5761155d611132565b5b600082013567ffffffffffffffff81111561157c5761157b611137565b5b611588848285016112e1565b91505092915050565b7f4e6f74206f776e65720000000000000000000000000000000000000000000000600082015250565b60006115c76009836113f7565b91506115d282611591565b602082019050919050565b600060208201905081810360008301526115f6816115ba565b9050919050565b7f50726f626c656d20616c7265616479207265736f6c7665640000000000000000600082015250565b60006116336018836113f7565b915061163e826115fd565b602082019050919050565b6000602082019050818103600083015261166281611626565b9050919050565b600081905092915050565b50565b6000611684600083611669565b915061168f82611674565b600082019050919050565b60006116a582611677565b9150819050919050565b7f526566756e64206661696c656400000000000000000000000000000000000000600082015250565b60006116e5600d836113f7565b91506116f0826116af565b602082019050919050565b60006020820190508181036000830152611714816116d8565b9050919050565b7f4e487b7100000000000000000000000000000000000000000000000000000000600052602260045260246000fd5b6000600282049050600182168061176257607f821691505b6020821081036117755761177461171b565b5b50919050565b60008190508160005260206000209050919050565b60006020601f8301049050919050565b600082821b905092915050565b6000600883026117dd7fffffffffffffffffffffffffffffffffffffffffffffffffffffffffffffffff826117a0565b6117e786836117a0565b95508019841693508086168417925050509392505050565b6000819050919050565b600061182461181f61181a8461113c565b6117ff565b61113c565b9050919050565b6000819050919050565b61183e83611809565b61185261184a8261182b565b8484546117ad565b825550505050565b600090565b61186761185a565b611872818484611835565b505050565b5b818110156118965761188b60008261185f565b600181019050611878565b5050565b601f8211156118db576118ac8161177b565b6118b584611790565b810160208510156118c4578190505b6118d86118d085611790565b830182611877565b50505b505050565b600082821c905092915050565b60006118fe600019846008026118e0565b1980831691505092915050565b600061191783836118ed565b9150826002028217905092915050565b611930826113ec565b67ffffffffffffffff811115611949576119486111e4565b5b611953825461174a565b61195e82828561189a565b600060209050601f831160018114611991576000841561197f578287015190505b611989858261190b565b8655506119f1565b601f19841661199f8661177b565b60005b828110156119c7578489015182556001820191506020850194506020810190506119a2565b868310156119e457848901516119e0601f8916826118ed565b8355505b6001600288020188555050505b505050505050565b7f4e487b7100000000000000000000000000000000000000000000000000000000600052603260045260246000fd5b7f4e487b7100000000000000000000000000000000000000000000000000000000600052601160045260246000fd5b6000611a628261113c565b9150611a6d8361113c565b9250828203905081811115611a8557611a84611a28565b5b92915050565b6000611a968261113c565b91507fffffffffffffffffffffffffffffffffffffffffffffffffffffffffffffffff8203611ac857611ac7611a28565b5b600182019050919050565b6000606082019050611ae8600083018661119f565b611af5602083018561119f565b611b0260408301846113dd565b949350505050565b7f5265776172642072657175697265640000000000000000000000000000000000600082015250565b6000611b40600f836113f7565b9150611b4b82611b0a565b602082019050919050565b60006020820190508181036000830152611b6f81611b33565b9050919050565b6000604082019050611b8b600083018561119f565b611b9860208301846113dd565b9392505050565b7f416c726561647920766f74656400000000000000000000000000000000000000600082015250565b6000611bd5600d836113f7565b9150611be082611b9f565b602082019050919050565b60006020820190508181036000830152611c0481611bc8565b9050919050565b7f416c726561647920616363657074656400000000000000000000000000000000600082015250565b6000611c416010836113f7565b9150611c4c82611c0b565b602082019050919050565b60006020820190508181036000830152611c7081611c34565b9050919050565b6000611c828261113c565b9150611c8d8361113c565b9250828201905080821115611ca557611ca4611a28565b5b92915050565b7f536f6c7574696f6e20616c726561647920616363657074656400000000000000600082015250565b6000611ce16019836113f7565b9150611cec82611cab565b602082019050919050565b60006020820190508181036000830152611d1081611cd4565b9050919050565b7f526577617264207472616e73666572206661696c656400000000000000000000600082015250565b6000611d4d6016836113f7565b9150611d5882611d17565b602082019050919050565b60006020820190508181036000830152611d7c81611d40565b905091905056fea2646970667358221220e72ec52e1c5266e26fbb5a086661a628020a489359dc1d4c75494858f0adf48564736f6c634300081c0033",
  "linkReferences": {},
  "deployedLinkReferences": {}
}